:100000000C9414100C9454100C9454100C94541020
:100010000C9454100C9454100C9454100C945410D0
:100020000C9454100C9454100C9454100C945410C0
:100030000C9454100C9454100C9454100C945410B0
:100040000C9454100C94BF7F0C9454100C945410C6
:100050000C9454100C9454100C9443780C9408662F
:100060000C9454100C9463280C9459280C9454103C
:100070000C9454100C9454100C9454100C94541070
:100080000C9454100C9454100C9454100C94541060
:100090000C9454100C9454100C9454100C94541050
:1000A0000C9454100C9454100C9454100C94541040
:1000B0000C9454100C9454100C9454100C94541030
:1000C0000C9454100C9454100C9454100C94541020
:1000D0000C9454100C9454100C9454100C94541010
:1000E0000C94541005A84CCDB2D44EB93836A902A0
:1000F0000C50B9918688083CA6AAAA2ABE00000026
:10010000803F4E414E494E495459494E46CDCCCC84
:100110003D0AD7233C17B7D13877CC2B329595E6DB
:10012000241FB14F0A000020410000C84200401CBB
:100130004620BCBE4CCA1B0E5AAEC59D74434F4DE3
:100140004D554E49434154494F4E00445259525522
:100150004E004552524F525300494E464F004543C0
:10016000484F004572726F722077726974696E67CA
:1001700020746F20454550524F4D210A005072693E
:100180006E7465722073746F707065642064756539
:1001900020746F206572726F72732E20466978200A
:1001A000746865206572726F7220616E6420757369
:1001B00065204D39393920746F207265737461720E
:1001C000742E202854656D70657261747572652097
:1001D00069732072657365742E2053657420697489
:1001E0002061667465722072657374617274696EE1
:1001F00067290A004E6F20436865636B73756D2035
:1002000077697468206C696E65206E756D626572C1
:100210002C204C617374204C696E653A20004E6F3F
:1002200020436865636B73756D2077697468206C13
:10023000696E65206E756D6265722C204C617374F9
:10024000204C696E653A2000636865636B73756D59
:10025000206D69736D617463682C204C6173742028
:100260004C696E653A20004C696E65204E756D6272
:100270006572206973206E6F74204C617374204C1A
:10028000696E65204E756D6265722B312C204C6154
:100290007374204C696E653A20004D313130005343
:1002A000657269616C20737461747573206D697314
:1002B0006D617463680A005344207265616420654F
:1002C00072726F720A002121204B494C4C206361ED
:1002D0007573656420627920746F6F206D75636833
:1002E00020696E6163746976652074696D65202D7F
:1002F0002063757272656E7420636F6D6D616E64DC
:100300003A2000627573793A2070617573656420D4
:10031000666F7220696E7075740A00627573793A3F
:100320002070617573656420666F722075736572E5
:100330000A00627573793A2070726F63657373692E
:100340006E670A006563686F3A004572726F723AB1
:10035000004F4646004F4E000A4D65617375726549
:100360006420706F696E74733A0A00357835206DB9
:100370006573682E205A206F66667365743A200094
:10038000486F74656E6420746F6F20636F6C640ACD
:100390000057616974696E6720666F7220686561D5
:1003A0007475702E0A003F537065636966696564F1
:1003B00020582C5920636F6F7264696E61746520D8
:1003C0006F7574206F6620626F756E64732E0A00FD
:1003D0003F28522965706561742076616C756520CF
:1003E0006E6F7420706C61757369626C653B206D13
:1003F000757374206265206174206C65617374206C
:10040000312E0A003F2852296570656174206D7590
:100410007374206265207370656369666965642022
:100420007768656E206E6F74207573696E672061E2
:100430006E204C43442E0A003F5370656369666921
:100440006564206E6F7A7A6C652074656D70657274
:100450006174757265206E6F7420706C617573695C
:10046000626C652E0A003F53706563696669656456
:100470002066696C616D656E742073697A65206EA3
:100480006F7420706C61757369626C652E0A003F31
:10049000537065636966696564207072696D652073
:1004A0006C656E677468206E6F7420706C61757314
:1004B00069626C652E0A003F5072696D65206C653B
:1004C0006E677468206D7573742062652073706543
:1004D000636966696564207768656E206E6F742055
:1004E0007573696E6720616E204C43442E0A003F8D
:1004F000537065636966696564206E6F7A7A6C65AE
:100500002073697A65206E6F7420706C61757369F1
:10051000626C652E0A003F52657472616374696F84
:100520006E204D756C7469706C696572206D7573A1
:1005300074206265207370656369666965642E0A5C
:10054000003F537065636966696564205265747223
:10055000616374696F6E204D756C7469706C696548
:1005600072206E6F7420706C61757369626C652E99
:100570000A003F537065636966696564206C617940
:10058000657220686569676874206E6F7420706C8E
:1005900061757369626C652E0A0043292E0A003F5B
:1005A000537065636966696564206265642074657B
:1005B0006D7065726174757265206E6F7420706CF9
:1005C00061757369626C65202834302D00473236BE
:1005D000207374617274696E672E2E2E0A004F4666
:1005E000460A0046616465204865696768742000B2
:1005F000426564204C6576656C696E6720004661D3
:10060000696C656420746F20656E61626C65204260
:100610006564204C6576656C696E670A004D65738C
:100620006820426564204C6576656C206461746165
:100630003A0A00496E76616C6964206D6573682EB4
:100640000A00206E6F7420656E74657265642E0AF0
:100650000020496E76616C696420657874727564F7
:100660006572200047323800206F6620004D424CF2
:100670002047323920706F696E742000290A004AC1
:10068000206F7574206F662072616E676520283058
:100690002D00290A0049206F7574206F6620726151
:1006A0006E67652028302D004D6573682070726F6D
:1006B00062696E6720646F6E652E0A005374617202
:1006C00074206D6573682070726F62696E67207741
:1006D00069746820224732392053312220666972BA
:1006E00073742E0A004732395332004732380A47B2
:1006F0003239533200686173206E6F206461746117
:100700002E0A004D65736820426564204C6576654D
:100710006C696E67200053206F7574206F662072BD
:10072000616E67652028302D35292E0A004D6573CE
:100730006820706F696E74206F7574206F66207208
:10074000616E67650A00456E642066696C65206CA1
:100750006973740A00426567696E2066696C65207A
:100760006C6973740A004E6F206D656469610A00DC
:10077000286E6F2066696C65290043757272656E1C
:10078000742066696C653A20005344207072696E6B
:1007900074696E67206279746520004E6F7420530F
:1007A00044207072696E74696E670A002E0A0044F4
:1007B000656C6574696F6E206661696C65642C2078
:1007C00046696C653A200046696C652064656C6515
:1007D0007465643A005072696E742074696D653A8C
:1007E00020000A53746174733A2046696C616D6528
:1007F0006E7420757365643A20002C204C6F6E6710
:10080000657374206A6F623A2000546F74616C20C3
:1008100074696D653A200053746174733A20002C3A
:10082000204661696C65643A20002C2046696E6937
:10083000736865643A20005072696E74733A2000E0
:1008400053746174733A20006F6B006F6666005ECC
:1008500001590152014B013D0144454255473A00BF
:100860004D31313320530020204D39322058004380
:100870004F4E4649475F4558504F5254004D4541F1
:10088000545041434B00434F4F4C45525F54454DEC
:100890005045524154555245004348414D424552FE
:1008A0005F54454D504552415455524500424142D6
:1008B000595354455050494E470041524353004DFF
:1008C0004F54494F4E5F4D4F444553005448455295
:1008D0004D414C5F50524F54454354494F4E004593
:1008E0005854454E4445445F4D3230004C4F4E47BE
:1008F0005F46494C454E414D45004155544F524588
:10090000504F52545F53445F535441545553005316
:10091000445F575249544500524550454154005395
:1009200044434152440050524F4D50545F53555030
:10093000504F525400484F53545F414354494F4E17
:100940005F434F4D4D414E445300454D4552474541
:100950004E43595F50415253455200434153455F06
:100960004C494748545F4252494748544E455353B7
:1009700000544F47474C455F4C4947485453005338
:100980004F4654574152455F504F574552004255CC
:10099000494C445F50455243454E54004C455645E2
:1009A0004C494E475F44415441005A5F50524F42B8
:1009B000450052554E4F5554004155544F4C4556E5
:1009C000454C005052494E545F4A4F420050524FDE
:1009D0004752455353004155544F5245504F52547E
:1009E0005F54454D50004155544F5245504F52545D
:1009F0005F504F5300564F4C554D4554524943009C
:100A0000454550524F4D0042494E4152595F46496B
:100A10004C455F5452414E5346455200534552494E
:100A2000414C5F584F4E5F584F4646004649524D25
:100A3000574152455F4E414D453A4D61726C696E6A
:100A400020322E302E392E3320284D617220323440
:100A500020323032322031373A35313A3339292099
:100A6000534F555243455F434F44455F55524C3AAF
:100A70006769746875622E636F6D2F4D61726C6962
:100A80006E4669726D776172652F4D61726C696E29
:100A90002050524F544F434F4C5F56455253494F8D
:100AA0004E3A312E30204D414348494E455F54590E
:100AB00050453A4A474175726F7261204135204571
:100AC000585452554445525F434F554E543A312085
:100AD000555549443A63656465326132662D343157
:100AE00061322D343734382D396231322D6335354A
:100AF0006336326633363766660A002F2F0020448D
:100B00000020204D32303020530020204D32303133
:100B100020580020450020204D323033205800203E
:100B2000520020204D323034205000204A00205402
:100B30000020530020204D3230352042003F4A2013
:100B40006F7574206F662072616E67652028302E85
:100B5000303120746F20302E33290A0020204D328E
:100B60003036205800205A002059002058002020FC
:100B70004D61783A2000200020204D696E3A200017
:100B8000203B200020204D32313120530046523A84
:100B90000020466C6F773A20004D424C2041646A39
:100BA000757374205A0020440020490020204D33E2
:100BB000303120500064697300656E0043290A00DB
:100BC00061626C656420286D696E2074656D7020AB
:100BD00000436F6C6420657874727564657320617E
:100BE000726520004D65736820706F696E74206FA8
:100BF0007574206F662072616E67650A004D34322D
:100C00003120696E636F7272656374207061726106
:100C10006D657465722075736167650A00546F6F46
:100C2000206661722066726F6D20726566657265FE
:100C30006E636520706F696E740A00454550524FAF
:100C40004D204F4B0A0020286D6D2900203B0020CD
:100C5000550020204D363033204C004D38340044B0
:100C60006F6E65207072696E74696E672066696C5C
:100C7000650A004D3737004D3331004361703A004B
:100C80002569730025696D20256973002569682031
:100C900025696D2025697300256964202569682010
:100CA00025696D20256973002569792025696420EF
:100CB0002569682025696D202569730023646566B0
:100CC000696E652044454641554C545F004B642095
:100CD000004B6920004B702000504944204175743E
:100CE0006F74756E652066696E697368656421202E
:100CF00050757420746865206C617374204B702C7F
:100D0000204B6920616E64204B6420636F6E7374A6
:100D1000616E74732066726F6D2062656C6F7720F0
:100D2000696E746F20436F6E66696775726174696E
:100D30006F6E2E680A00504944204175746F7475B7
:100D40006E65206661696C6564212074696D656FEC
:100D500075740A00504944204175746F74756E654E
:100D6000206661696C6564212054656D70657261EF
:100D70007475726520746F6F20686967680A002057
:100D80004B643A2000204B693A2000204B703A20F7
:100D90000020436C617373696320504944200A004A
:100DA0002054753A2000204B753A2000206D617860
:100DB0003A2000206D696E3A200020643A2000201D
:100DC000626961733A2000504944204175746F7420
:100DD000756E652073746172740A00504944204135
:100DE00075746F74756E65206661696C6564212029
:100DF00054656D706572617475726520746F6F20D3
:100E0000686967680A00504944204175746F7475B9
:100E10006E65206661696C656421204261642068AA
:100E200065617465722069640A00486F6D696E6758
:100E3000204661696C6564006F70656E00545249AC
:100E4000474745524544003A20007A5F6D696E007D
:100E5000795F6D696E00785F6D696E005265706FC5
:100E60007274696E6720656E6473746F702073743A
:100E7000617475730A0020746F6F206C6F6E672049
:100E8000657874727573696F6E2070726576656EC1
:100E90007465640A0020636F6C64206578747275F1
:100EA00073696F6E2070726576656E7465640A0092
:100EB0000000A0C000000000000000005761726E3A
:100EC000696E673A20486F6D696E672042756D7074
:100ED0002044697669736F72203C20310A000A0A47
:100EE0000600009B43008098430000A0430000A040
:100EF000400000A04000000040008098430080981F
:100F0000430000A0430000A0C0000000000000005B
:100F100000290A002062797465733B2063726320A4
:100F20000053657474696E67732053746F726564DF
:100F300020280048617264636F64656420446566BC
:100F400061756C742053657474696E6773204C6F9F
:100F5000616465640A00454550524F4D20646174D8
:100F60006173697A65206572726F722E0A00290AB0
:100F7000002062797465733B2063726320002073E4
:100F8000746F7265642073657474696E6773207220
:100F90006574726965766564202800202863616C39
:100FA00063756C6174656429210A0020213D20006D
:100FB000454550524F4D20435243206D69736D613A
:100FC000746368202D202873746F72656429200073
:100FD0002053697A653A2000496E6465783A2000AA
:100FE0000000FA430000FA43000070410000C841CD
:100FF0000000A0420000A042000048440000C84297
:10100000E8030000F4010000640000008813000001
:10101000204D61726C696E3D563836290A0045458F
:1010200050524F4D2076657273696F6E206D6973F3
:101030006D617463682028454550524F4D3D002432
:10104000F4D43050C38E20C2A24017828B7011128C
:101050007A910D816CD90AA861E108C758660761C9
:101060005143061E4B5D05C145A7041A41110409F1
:101070003D9803713931034036DB0265339102D468
:10108000305402802E1D02632CEE01752AC501B07A
:1010900028A001102781018F2564012B244B01E03A
:1010A000223401AC211F018D200D01801FFC008422
:1010B0001EED00971DDF00B81CD200E61BC6002005
:1010C0001BBC00641AB200B219A8000A19A0006A79
:1010D000189900D117910040178B00B51684003184
:1010E000167E00B31579003A157300C7146F0058C7
:1010F000146A00EE1366008813630025135E00C7B0
:10110000125B006C12570015125400C1115100708F
:10111000114F0021114B00D61049008D1047004699
:1011200010440002104200C00F4000800F3E0042F9
:101130000F3C00060F3B00CB0E3800930E37005CCF
:101140000E3500270E3400F30D3200C10D31009032
:101150000D3000600D2E00320D2D00050D2C00D934
:101160000C2B00AE0C2900850C29005C0C270035E7
:101170000C27000E0C2600E80B2400C40B2400A052
:101180000B23007D0B23005A0B2100390B21001883
:101190000B2000F80A1F00D90A1E00BB0A1E009D82
:1011A0000A1D00800A1D00630A1C00470A1B002C50
:1011B0000A1B00110A1A00F7091A00DD091900C4F8
:1011C000091900AB091900920917007B091800637F
:1011D0000917004C09160036091600200916000AE6
:1011E000091500F5081500E0081400CC081400B833
:1011F000081400A4081400900813007D0812006B66
:101200000813005808120046081200340811002381
:101210000811001208110001081100F0071000E089
:10122000071000D0071000C0071000B0070F00A182
:1012300007100091070E0083070F0074070F006569
:10124000070E0057070E0049070E003B070D002E42
:10125000070E0020070D0013070D0006070D00F90B
:10126000060C00ED060D00E0060C00D4060C00C8CC
:10127000060C00BC060C00B0060C00A4060B00997E
:10128000060C008D060B0082060B0077060B006C27
:10129000060B0061060A0057060B004C060A0042C6
:1012A000060A0038060A002E060A0024060A001A5A
:1012B000060A001006090007060A00FD050900F4E9
:1012C000050900EB050900E2050900D9050900D070
:1012D000050900C7050900BE050900B5050800ADF0
:1012E000050800A50509009C050800940508008C68
:1012F000050800840508007C050800740508006CDA
:10130000050700650508005D050700560508004E45
:1013100005070047050700400508003805070031AC
:101320000507002A050700230507001C050600160F
:101330000507000F0507000805060002050700FB6A
:10134000040600F5040700EE040600E8040600E2C7
:10135000040700DB040600D5040600CF040600C91C
:10136000040600C3040600BD040600B7040600B16D
:10137000040500AC040600A6040600A00405009BBA
:1013800004060095040500900406008A0405008503
:10139000040500800406007A040500750405007049
:1013A0000405006B04050066040500610405005C8B
:1013B00004050057040500520405004D04050048CB
:1013C000040500430405003E0404003A040500350A
:1013D000040500300404002C040500270404002345
:1013E0000405001E0404001A04040016040500117C
:1013F0000404000D040400090405000404040000B2
:10140000040400FC030400F8030400F4030400F0E7
:10141000030400EC030400E8030400E4030400E018
:10142000030400DC030400D8030400D4030400D048
:10143000030400CC030400C8030300C50303002415
:10144000F404D9201BC40C5C0E9804C4095F026527
:10145000077101F405F900FB04B30048048700C1DB
:101460000369005803550003034500BE023A008497
:1014700002310053022A002902250004022000E460
:10148000011C00C8011900AF011700980114008465
:10149000011300710110006101100051010E0043A1
:1014A000010D0036010B002B010B0020010B001574
:1014B0000109000C01090003010800FB000800F30A
:1014C000000800EB000700E4000600DE000600D87C
:1014D000000600D2000600CC000500C7000500C2CF
:1014E000000500BD000400B9000400B5000400B10F
:1014F000000400AD000400A9000400A5000300A240
:101500000003009F0004009B000300980003009567
:1015100000020093000300900003008D0002008B86
:10152000000300880002008600020084000300819E
:101530000002007F0002007D0002007B00020079B3
:1015400000020077000100760002007400020072C1
:10155000000100710002006F0002006D0001006CCC
:101560000002006A000100690002006700010066D5
:1015700000010065000100640002006200010061DA
:10158000000100600001005F0002005D0001005CDE
:101590000001005B0001005A0001005900010058E1
:1015A00000010057000100560001005500010054E1
:1015B00000010053000000530001005200010051DF
:1015C000000100500001004F0001004E0000004EDD
:1015D0000001004D0001004C0001004B0000004BD9
:1015E0000001004A000100490001004800000048D5
:1015F00000010047000100460000004600010045D0
:1016000000000045000100440001004300000043C9
:1016100000010042000000420001004100000041C2
:10162000000100400001003F0000003F0001003EBB
:101630000000003E0001003D0000003D0001003CB4
:101640000000003C0000003C0001003B0000003BAB
:101650000001003A0000003A0001003900000039A2
:101660000001003800000038000000380001003799
:101670000000003700010036000000360000003690
:101680000001003500000035000000350001003485
:10169000000000340000003400010033000000337B
:1016A0000000003300010032000000320000003270
:1016B0000001003100000031000000310001003065
:1016C00000000030000000300001002F0000002F5B
:1016D0000000002F0000002F0001002E0000002E4F
:1016E0000000002E0001002D0000002D0000002D44
:1016F0000000002D0001002C0000002C0000002C38
:101700000000002C0001002B0000002B0000002B2B
:101710000000002B0001002A0000002A0000002A1F
:101720000000002A00010029000000290000002913
:101730000000002900000029000100280000002806
:1017400000000028000000280000002800010027F9
:1017500000000027000000270000002700000027ED
:1017600000010026000000260000002600000026E0
:1017700000000026000100250000002500000025D3
:1017800000000025000000250000002500010024C5
:1017900000000024000000240000002400000024B9
:1017A00000010023000000230000002300000023AC
:1017B000000000230000002300000023000100229D
:1017C0000000002200000022000000220000002291
:1017D0000000002200010021000000210000002183
:1017E0000000002100000021000000210000002175
:1017F0000001002000000020000000200000002068
:101800000000002000000020000000200000002058
:101810000001001F0000001F0000001F0000001F4B
:101820000000001F0000001F0000001F0001001E3C
:101830000000001E0000001E0000001E000000044A
:101840003700001E290000511B0000581000001036
:10185000090000CC040000780200004101000020D3
:10186000436F756E7420583A004500626564002C21
:101870002073797374656D2073746F707065642163
:10188000204865617465725F49443A20004865618B
:1018900074696E67204661696C65640048656174AF
:1018A000696E67206661696C6564004D3131322074
:1018B00053687574646F776E0070012C0190012776
:1018C00001B0012201C0011D01F001180110021335
:1018D0000130020E016002090190020401C002FF02
:1018E000000003FA004003F5008003F000D003EB92
:1018F000002004E6007004E100E004DC004005D7AD
:1019000000C005D2004006CD00D006C8008007C345
:10191000003008BE00F008B900C009B400B00AAF3A
:1019200000B00BAA00D00CA500000EA000500F9B29
:1019300000C01096005012910000148C00C0158752
:1019400000B0178200B0197D00D01B7800001E7314
:101950000040206E0090226900F024640040275F60
:101960000090295A00E02B5500102E500020304BDB
:101970000010324600E033410090353C001037370C
:101980000070383200A0392D00B03A2800A03B2367
:1019900000603C1E00103D1900903D1400103E0FE9
:1019A00000703E0A00C03E0500003F0000403FFBC3
:1019B000FF803FF6FFC03FF1FF4572723A204D4174
:1019C0005854454D50004D415854454D5020747267
:1019D00069676765726564004572723A204D494EC9
:1019E00054454D50004D494E54454D502074726938
:1019F00067676572656400544845524D414C2052FA
:101A0000554E4157415900546865726D616C2052C2
:101A1000756E6177617900202F002042403A0020E6
:101A2000403A0020573A0020573A00496E76616CE0
:101A300069642065787472756465720A007C3C3E46
:101A40005E2B3D3F2F5B5D3B2C2A225C0043616E89
:101A50006E6F74206F70656E20737562646972209A
:101A60000053442063617264206F6B0A006F7065DD
:101A70006E526F6F74206661696C65640A00766FE0
:101A80006C756D652E696E6974206661696C65643C
:101A90000A004E6F20534420636172640A002E0ACC
:101AA000006F70656E206661696C65642C20466904
:101AB0006C653A200046696C652073656C656374DB
:101AC00065640A002053697A653A200046696C65AE
:101AD000206F70656E65643A2000454E4420535572
:101AE00042524F5554494E450A002220706F7300F0
:101AF0002220706172656E743A2200535542524F33
:101B00005554494E452043414C4C207461726765E1
:101B1000743A220053756263616C6C204F76657273
:101B2000666C6F77004578636565646564206D61F8
:101B30007820535542524F5554494E4520646570A4
:101B400074683A0057726974696E6720746F206612
:101B5000696C653A2000667265736800646F696E2F
:101B600067002066696C653A20004E6F7720000A96
:101B70004D3234004D3233202573002F6175746F60
:101B800025632E6700F001130110020E01300204DC
:101B9000016002FD009002F8000003EF008003E8FE
:101BA000002004DE00E004D400D005CE00A006C76B
:101BB000006007BF002008BA00E009B000B00BA722
:101BC00000000E9E00E010940010148900B0177FF2
:101BD00000E01B750060206A0010256000C02956D7
:101BE00000302E4C00F02F4800E0333E00603830CB
:101BF00000E0392D00B03B2300603C1E00103D1971
:101C000000903D1400103E0F00703E0A00C03E05DB
:101C100000003F0000403FFBFF803FF6FFC03FF168
:101C2000FF2020506C616E6E65724275666665724B
:101C300042797465733A20002046726565204D65CF
:101C40006D6F72793A200020436F6D70696C656426
:101C50003A204D617220323420323032320A002074
:101C60004C61737420557064617465643A2032303D
:101C700032312D31322D3235207C20417574686F20
:101C8000723A202854656C6C69204D616E74656CE5
:101C90006C692C204B726973205761636C61777398
:101CA0006B692C2053616D75656C2050696E63689B
:101CB00065732026204D69636861656C2047696CF7
:101CC000617264692C203231204A616E20323031D9
:101CD00038290A004D61726C696E20322E302E391F
:101CE0002E330A0020536F66747761726520526547
:101CF0007365740A00205761746368646F672052CB
:101D0000657365740A002042726F776E206F757478
:101D10002052657365740A002045787465726E619F
:101D20006C2052657365740A00506F776572557048
:101D30000A0073746172740A00473237004D313003
:101D40003031006F6B006572726F72207772697448
:101D5000696E6720746F2066696C650A00446F6E57
:101D60006520736176696E672066696C652E0A006E
:101D70004D323900205A3A0020593A0020583A0092
:101D8000656E6473746F7073206869743A20000024
:101D9000000A0B02090C0D0E0807030401000000E5
:101DA0000000000000000000000000000000000033
:101DB00000000000000000000000001211100000F0
:101DC0000000000000000000000000000000000013
:101DD0000000000000FFFFFF496E7365727420660B
:101DE000696C616D656E7420616E642073656E64EC
:101DF000204D3130380A0053656E64204D31303843
:101E000020746F20726573756D650A00496E736585
:101E100072742066696C616D656E7420616E6420F9
:101E200073656E64204D3130380A0053656E64204E
:101E30004D31303820746F2068656174206E6F7A80
:101E40007A6C650A00220A00556E6B6E6F776E2001
:101E5000636F6D6D616E643A202200DB0FC93F45F0
:101E6000BCDA3F8FB30240FCF0274056946140FE3D
:101E70004B9B4084A5D840E0231841346A5641E882
:101E800059974164DBD5416E271742B4B75542CE0E
:101E90001A9742C8AED542B5885A43D40684BFA625
:101EA0005FA7BF7443E0BF10B11AC01C2C58C0E834
:101EB000F697C0B849D6C04E4E17C124D355C1803D
:101EC0002497C1A0B5D5C1121A17C244AE55C27825
:101ED0001797C26CACD5C267885AC320746F6F2045
:101EE0006C6F6E6720657874727573696F6E2070A1
:101EF000726576656E7465640A0020636F6C642099
:101F0000657874727573696F6E2070726576656E30
:101F10007465640A00486F6D652025732573257309
:101F20002046697273740020453A00205A3A002016
:101F3000593A00583A006F6B0A00526573656E6437
:101F40003A200000002200250028002B002E00313E
:101F500000340002010000050108010B010000210E
:101F600000240027002A002D00300033000101006A
:101F700000040107010A0105050505070508080811
:101F800008020202020A0A0808040404040101010A
:101F90000101010101030303030303030304070712
:101FA000070C0C0C0C0C0C0C0C02020202060606B0
:101FB00006060606060B0B0B0B0B0B0B0B01021098
:101FC0002020080810204010204080020102010853
:101FD0000402010102040810204080804020100803
:101FE000040201800402018040201008040201085C
:101FF00004020101020408102040800102040810BC
:102000002040805072696E7465722068616C7465DE
:10201000642E206B696C6C28292063616C6C65648C
:10202000210A000036A026A711241FBECFEFD1E25F
:10203000DEBFCDBF00E00CBF84B78093EE1114BEAD
:102040000FB6F894A8958091600088618093600035
:10205000109260000FBE13E0A0E0B2E0E0EDF6E603
:1020600001E00BBF02C007900D92A232B107D9F771
:1020700021E1A2E2B3E001C01D92AE3EB207E1F75A
:1020800010E1C3E1D0E100E006C021970109802FF3
:10209000FE010E946FB0C231D10780E00807A9F7A6
:1020A0000E9421A10C9457B30C940000AF92BF92F0
:1020B000CF92DF92EF92FF920F931F93CF93DF9314
:1020C000C2EED9E00AE415E082EFA82E89E0B82E2E
:1020D000C12CD12C7601C394699179918991999100
:1020E0000E9408AC288939894A895B890E9469ACB9
:1020F0000E947DB1F80161937193819391938F0157
:10210000C616D706E806F90610F46B017C01AC167A
:10211000BD0611F76FEF7FEFCB01A70196010E947B
:10212000DEAF20935A0530935B0540935C055093D6
:102130005D05DF91CF911F910F91FF90EF90DF90A0
:10214000CF90BF90AF900895CF92DF92EF92FF9221
:102150008091B903882309F457C0C090B503D0908B
:10216000B603E090B703F090B80320E030E0A90197
:10217000C701B6010E9404AC882309F445C020E0E1
:1021800030E040E05FE3C701B6010E9469AC9B010B
:10219000AC010E9469AC2BED3FE049E450E40E94A1
:1021A00069AC9B01AC0160E070E080E89FE30E94B5
:1021B00010B16B017C01C0928A03D0928B03E09234
:1021C0008C03F0928D036091210270912202072E00
:1021D000000C880B990B0E940AAC2AE037ED43E211
:1021E0005CE30E9469ACA70196010E9469AC609310
:1021F0005102709352028093530290935402FF90C5
:10220000EF90DF90CF900895C12CD12C80E8E82E7C
:102210008FE3F82ED0CF2F923F924F925F926F9222
:102220007F928F929F92AF92BF92CF92DF92EF9266
:10223000FF920F931F93CF93DF93CDB7DEB76497D1
:102240000FB6F894DEBF0FBECDBF7A8B698BDC0171
:102250008D909D90AD90BC90139714962D913D91CB
:102260004D915C9117972D833E834F83588720E0D3
:1022700030E040E251E4C501B4010E9495B02DE682
:1022800033EF45E65CE30E9469AC0E9478B16430AC
:102290000CF427C163E0E62E660FFF08F701EE0F8E
:1022A000FF1FEE0FFF1FE95FF24F408051806280F9
:1022B00073801701BFEF2B1A3B0A20E030E040E2A9
:1022C00051E46D817E818F8198850E9495B02DE6C5
:1022D00033EF45E65CE30E9469AC0E9478B164305C
:1022E0000CF403C163E0062F660F110BF801EE0F2B
:1022F000FF1FEE0FFF1FE95FF24F20813181428106
:10230000538129833A834B835C83A8014F5F5F4FDE
:102310005C8B4B8BA5E0AE9DC001AF9D900D112451
:102320009A878987FC01E00FF11FEE0FFF1FEE0F68
:10233000FF1FE654FC4FC080D180E280F380F101A2
:10234000EE0FFF1FEE0FFF1FE95FF24FA301920197
:1023500060817181828193810E9495B06B877C87B7
:102360008D879E87A3019201C501B4010E9495B09B
:102370002B013C0125E0229DF001239DF00D11244D
:10238000F88BEF87E00FF11FEE0FFF1FEE0FFF1F1F
:10239000E654FC4FA701960160817181828193818F
:1023A0000E9495B02B853C854D855E850E9410B1BD
:1023B000A30192010E9469ACA70196010E9496B008
:1023C0006B017C01E985FA854B895C89E40FF51F77
:1023D000EE0FFF1FEE0FFF1FE654FC4F8080918031
:1023E000A280B380EF85F889E40FF51FEE0FFF1F81
:1023F000EE0FFF1FE654FC4FA5019401608171812F
:10240000828193810E9495B02B853C854D855E85A8
:102410000E9410B1A30192010E9469ACA501940130
:102420000E9496B0A70196010E9495B04B015C01F5
:10243000EB89FC89EE0FFF1FEE0FFF1FE95FF24FE4
:1024400029813A814B815C81608171818281938194
:102450000E9495B09B01AC01C501B4010E9410B16E
:102460004B015C0129813A814B815C816D817E81C8
:102470008F8198850E9495B09B01AC01C501B40184
:102480000E9469ACA70196010E9496B0A989BA89F9
:102490002D913D914D915C910E9469AC20911E045B
:1024A00030911F0440912004509121040E9496B065
:1024B00064960FB6F894DEBF0FBECDBFDF91CF910B
:1024C0001F910F91FF90EF90DF90CF90BF90AF9052
:1024D0009F908F907F906F905F904F903F902F9044
:1024E000089567FFD8CE60E0D6CE67FFFCCE60E0EF
:1024F000FACE8F929F92AF92BF92CF92DF92EF92DD
:10250000FF92CF93DF93EC018090420590904305BA
:10251000A0904405B090450520E030E0A901C50138
:10252000B4010E9404AC882309F454C0C880D98047
:10253000EA80FB80A7019601C501B4010E9404ACAA
:1025400018160CF04CC020913A0530913B05409193
:102550003C0550913D05C701B6010E9404AC88239B
:1025600031F1C0923A05D0923B05E0923C05F092E1
:102570003D0520913E0530913F0540914005509129
:102580004105688179818A819B810E9469AC9B01A8
:10259000AC0160E070E080E89FE30E9495B060933A
:1025A0001D0270931E0280931F029093200260917F
:1025B0001D0270911E0280911F0290912002DF91F6
:1025C000CF91FF90EF90DF90CF90BF90AF909F9012
:1025D0008F90089560E070E080E89FE3F0CF60E0C6
:1025E00070E0CB01ECCFFC017081472F50E0062E4C
:1025F00002C0559547950A94E2F740FF14C04091F8
:102600007D0350E0062E02C0559547950A94E2F7E7
:1026100040FF09C021E030E001C0220F6A95EAF7CF
:102620002095272320830895CF93DF9324E0829F72
:10263000C0011124EC01C55DD54FFC01E451FB4FF5
:1026400082589C4FDC012D913D914D915C916081B0
:102650007181828193810E9496B0688379838A8395
:102660009B83DF91CF910895CF93DF93DB01F90135
:102670009C919130C1F0943080F094509C938830BC
:10268000D1F480819181009771F0019791838083CB
:10269000480F591FEA01188206C08C3539F49C5F37
:1026A0009C93943041F4DF91CF9108958B3339F7A7
:1026B00081E08C93F8CF20813181B9016F5F7F4F2A
:1026C00071836083420F531FEA0188838081918167
:1026D0008F3591056CF7E7CF0F931F9381E0009141
:1026E000210D1091220D2091230D3091240D409148
:1026F0001D0D50911E0D60911F0D7091200D04173E
:1027000015072607370708F480E01F910F910895F9
:1027100090E080E0089520915803833021F425FD56
:102720000CC024FD0CC030E0A90102C055954795AE
:102730008A95E2F7CA018170089581E0089580E0EA
:1027400008958091730384FD0BC08091750387FD0C
:1027500007C090917603937081E019F480E00895AA
:1027600081E008952FEB280F2A3108F047C0E22FAF
:10277000F0E08091730390917403A0917503B09180
:10278000760304C0B695A795979587952A95D2F7B5
:1027900080FD02C081700895E75AFC4FE081EE236E
:1027A00041F18091380590913905E80FF92FF11D1D
:1027B000808190ED980F9A3030F08E3251F4818103
:1027C00080538A3098F4F0934C03E0934B0381E0FC
:1027D00008958D3211F08B3249F4818190ED980F7C
:1027E0009A3088F38E3211F48281EACFF0E0E0E093
:1027F000EACF10924C0310924B03E9CF80E008958A
:10280000B1DF882341F081E020914B0330914C03EC
:10281000232B09F480E00895EF92FF920F931F930A
:10282000CF93DF930AEB13E0C5E07801D5E0F70121
:1028300061917191819191917F0120E030E0A90136
:102840000E9404AC81110EC0D15089F7C1500C5EBA
:102850001F4FC111EACFDF91CF911F910F91FF90D0
:10286000EF90089581E0F7CF0F931F938091FC04C0
:10287000813019F50E94D36200918F03109190036B
:102880002091910330919203601B710B820B930B8B
:1028900028EE33E040E050E00E94DEAF6091930309
:1028A000709194038091950390919603620F731F2A
:1028B000841F951F1F910F91089560919703709148
:1028C00098038091990390919A03D6CF8091FC044C
:1028D000813079F482E08093FC040E94D36260939B
:1028E0009703709398038093990390939A0381E0E0
:1028F000089580E008950F931F93CF93DF9306EF21
:1029000019E0CFE5D5E0F801219131914191519144
:102910008F0160E070E080E89FE30E9410B169934E
:10292000799389939993F5E0CF36DF0761F70E9499
:10293000B960DF91CF911F910F91B8CB20E030E0CB
:10294000A901BC0185E592E00C94B6952F923F92C7
:102950004F925F926F927F928F929F92AF92BF92AF
:10296000CF92DF92EF92FF920F931F93CF93DF935B
:10297000D62FC72FFC0180809180A280B380C50133
:10298000B40120E831E541E050E00E94DEAFC9012A
:102990006DE671E00E9448B06B017C01C501B40195
:1029A00020E13EE040E050E00E94DEAFCA01B90104
:1029B00028E130E040E050E00E94DEAF362E272EC6
:1029C000062F172F8CE3482E512C612C712CC5013A
:1029D000B401A30192010E94DEAFB62EA72ECA0158
:1029E000B901A30192010E94DEAFCB01C114D10451
:1029F00079F1AF92BF927F936F932F923F92FF92A4
:102A0000EF92DF92CF9288EA9CE09F938F93CF93CF
:102A1000DF930E94D5AB8DB79EB70E960FB6F89494
:102A20009EBF0FBE8DBF8D2F9C2FDF91CF911F9129
:102A30000F91FF90EF90DF90CF90BF90AF909F905D
:102A40008F907F906F905F904F903F902F90089560
:102A5000E114F104C9F0AF92BF927F936F932F926C
:102A60003F92FF92EF9288E99CE09F938F93CF93E0
:102A7000DF930E94D5ABEDB7FEB73C960FB6F89446
:102A8000FEBF0FBEEDBFCFCF012BB9F0AF92BF920B
:102A90007F936F932F923F928CE89CE09F938F934C
:102AA000CF93DF930E94D5AB8DB79EB70A960FB632
:102AB000F8949EBF0FBE8DBFB6CF892BA9F0AF9201
:102AC000BF927F936F9384E89CE09F938F93CF9303
:102AD000DF930E94D5ABEDB7FEB738960FB6F894EA
:102AE000FEBF0FBEEDBF9FCFAF92BF9280E89CE0CC
:102AF0009F938F93CF93DF930E94D5AB0F900F904E
:102B00000F900F900F900F908ECF80914B0390916C
:102B10004C03009731F04AE050E070E060E00C9424
:102B200064AA60E070E0CB01089580914B0390911E
:102B30004C03009731F04AE050E070E060E00C9404
:102B400039A960E070E0CB010895EFDF97FD0AC07E
:102B5000ECDF6F3F71058105910509F02CF4E5DF8D
:102B6000862F089580E008958FEF089580914B039C
:102B700090914C03892B39F0E8DF91E0811101C07D
:102B800090E0892F089591E0FCCFCF93DF93C82F79
:102B9000D62F36DE882319F0DF91CF91E7CF8C2F27
:102BA000E1DD811101C08D2FDF91CF910895BDDF4F
:102BB000CB010895CF93DF93EB0122DE882319F038
:102BC000DF91CF91F4CFCE01DF91CF9108950F9394
:102BD0001F93CF9380914B0390914C030097E9F0A2
:102BE000FC018F01C1912C2F2F7D81F0C53411F094
:102BF000C536B9F7F801108270E060E00E94E4A7E2
:102C0000F801C083CF911F910F91089570E060E0AB
:102C1000CF911F910F910C94E4A760E070E0CB017D
:102C2000F1CFCF92DF92EF92FF926A017B01E8DD54
:102C3000882329F0FF90EF90DF90CF90C8CFC70195
:102C4000B601FF90EF90DF90CF900895CF92DF9282
:102C5000EF92FF926B017C0183E3C816D104E1047B
:102C6000F10470F082E3C81AD108E108F10862E3C8
:102C700070E080E090E00E94A2620E941282ECCF9D
:102C8000C701B6010E94A262FF90EF90DF90CF9043
:102C90000C9412820F931F93CF93DF9300D01F9257
:102CA000CDB7DEB78C01089624DC69837A838B83E9
:102CB0009C83BE016F5F7F4FC801ADDA9B01AC0101
:102CC000F80160857185828593850E9495B0F80131
:102CD00060877187828793870F900F900F900F9076
:102CE000DF91CF911F910F910895CF93DF93809142
:102CF0008E03811119C0C0912302D0912402219723
:102D000020E030E040E05FE3609122057091230510
:102D100080912405909125050E9496B00E9478B17B
:102D200021E06C177D070CF020E0822FDF91CF911E
:102D300008950F931F93CF93DF9300D01F92CDB7C9
:102D4000DEB720912A0A2223D1F08C010896D1DB2C
:102D500069837A838B839C83BE016F5F7F4FC80139
:102D60005ADA9B01AC01F8016085718582859385F3
:102D70000E9496B0F80160877187828793870F90D1
:102D80000F900F900F90DF91CF911F910F910895A9
:102D90004F925F926F927F928F929F92AF92BF926B
:102DA000CF92DF92EF92FF920F931F93CF93DF9317
:102DB000CDB7DEB76A970FB6F894DEBF0FBECDBFB2
:102DC0009A8F898F5B018A01DC01D6966D917D9186
:102DD0008D919C91D9970E9408AC6B017C01F50103
:102DE00020813181428153810E9469AC0E94FAB0F6
:102DF0002B013C01D8012D913D914D915C91C70172
:102E0000B6010E9469AC0E94FAB04B015C01C3019B
:102E1000B2010E947DB1698B7A8B8B8B9C8B68375A
:102E200071058105910540F428E730E040E050E06D
:102E3000298B3A8B4B8B5C8BC501B4010E947DB111
:102E40006D877E878F87988B68377105810591051F
:102E500040F488E790E0A0E0B0E08D879E87AF87E0
:102E6000B88BE98DFA8DEE5BFF4F20813181428175
:102E7000538129833A834B835C83CA01B9010E9441
:102E80000AAC2B013C0169897A898B899C890E9453
:102E900008AC69877A878B879C8720E030E0A9019E
:102EA000C301B2010E9404AC882309F43BC1A7010D
:102EB0009601C701B6010E9469AC4B015C012985EE
:102EC0003A854B855C85CA01B9010E9469AC9B01BA
:102ED000AC01C501B4010E9495B04B015C01A30196
:102EE0009201C301B2010E9496B09B01AC01C501E1
:102EF000B4010E9410B10E94FAB00E947DB16D83AE
:102F00007E838F83988769817A818B819C8190955C
:102F10008095709561957F4F8F4F9F4F0E940AACAF
:102F20004B015C016D857E858F8598890E9408AC78
:102F300069837A838B839C8320E030E0A901C501FB
:102F4000B4010E9404AC882309F4F0C029813A81BD
:102F50004B815C81CA01B9010E9469AC6D8B7E8B8B
:102F60008F8B988FA7019601C701B6010E9469ACAB
:102F70009B01AC016D897E898F89988D0E9495B0E7
:102F80006B017C01A5019401C501B4010E9496B0BA
:102F90009B01AC01C701B6010E9410B10E94A9B10A
:102FA000A98DBA8D95968D909D90AD90BC90989777
:102FB000750164012D813E814F815885C21AD30A63
:102FC000E40AF50A0E947DB1C61AD70AE80AF90A8E
:102FD000F7FE6EC020E030E0A901C301B2010E94FB
:102FE00004AC882309F4A6C0C501B4010E9408AC52
:102FF0006B017C01A3019201C301B2010E9496B052
:103000009B01AC01C701B6010E9469AC6B017C0158
:1030100029853A854B855C85CA01B9010E9469AC56
:103020009B01AC01C701B6010E9495B06B017C0108
:1030300029813A814B815C81CA01B9010E9469AC46
:103040009B01AC01C701B6010E9496B06B017C01E7
:1030500020E030E040E850E4C301B2010E9469ACD6
:103060009B01AC01C701B6010E9410B10E94FAB0E9
:103070006B017C0120E030E0A9010E9435B21816F6
:103080001CF0C12CD12C7601C701B6010E947DB184
:103090006D837E838F83988786169706A806B90668
:1030A00020F48D829E82AF82B886C12CD12C76010D
:1030B0008D819E81AF81B885E98DFA8D81A792A718
:1030C000A3A7B4A7C80ED91EEA1EFB1EC5A6D6A686
:1030D000E7A6F0AA29893A894B895C8922AF33AFE8
:1030E00044AF55AFFE962D853E854F855889208388
:1030F0003183428353836A960FB6F894DEBF0FBEC6
:10310000CDBFDF91CF911F910F91FF90EF90DF9096
:10311000CF90BF90AF909F908F907F906F905F9077
:103120004F90089560E070E0CB01E5CE60E070E084
:10313000CB0134CF60E070E0CB0198CF8091E00C00
:103140009091E10C891B8F7019F490E080E0089554
:103150009091DD0C992351F0833030F48FEF890F7B
:1031600019F08093DD0CF1CF1092DD0C8091E10C11
:1031700027E4829FC00111248F589A4FFC012081BF
:1031800020FDE3CF2091E10C2F5F2F702093DE0C08
:103190003091E10C2091DF0C321304C02091DE0C41
:1031A0002093DF0C089590916F0081E091FD02C0A3
:1031B00080E0089590916F009D7F90936F00089537
:1031C000EFE6F0E08081826080830895CF92DF9205
:1031D000EF92FF92CF93DF93C82FE5DF94E0C99F72
:1031E000E0011124FE01E85CFB4FC080D180E28049
:1031F000F3808111E5DFC15ADA4FC701B6010E94A1
:103200000AAC288139814A815B810E9469ACDF91D7
:10321000CF91FF90EF90DF90CF900895CF92DF9203
:10322000EF92FF92CF93DF93C82FBDDF94E0C99F49
:10323000E0011124FE01E45DFB4FC080D180E280FB
:10324000F3808111BDDFC15ADA4FC701B6010E9478
:103250000AAC288139814A815B810E9469ACDF9187
:10326000CF91FF90EF90DF90CF9008959CDF9091E9
:10327000E10C9093E00C9093DF0C9093DE0C94E6BD
:103280009093DD0C20ED33E03093700520936F05B3
:10329000811196DF81E080932B040895CF93DF9313
:1032A000CDB7DEB72C970FB6F894DEBF0FBECDBFFB
:1032B0000E94546078DF9CE0E8E3F4E0DE011196C0
:1032C00001900D929A95E1F781117ADFCE01019676
:1032D0000E94F6782C960FB6F894DEBF0FBECDBFD5
:1032E000DF91CF9108952F923F924F925F926F920C
:1032F0007F928F929F92AF92BF92CF92DF92EF9286
:10330000FF920F931F93CF93DF9300D0CDB7DEB71B
:103310008090550290905602A0905702B0905802AB
:103320004090590250905A0260905B0270905C028B
:10333000C0905D02D0905E02E0905F02F09060026B
:103340000E9456100E94A41005E01FE087E292E060
:103350009B838A8389EF282E8EE0382E19828981FB
:1033600063D9F80185919591A591B491EA81FB818A
:1033700081939193A193B193FB83EA83F1018591AA
:103380009591A591B491EA81FB8180879187A2876D
:10339000B387F981FF5FF9830C5F1F4F84E0280E2C
:1033A000311CF330E1F682E294E00E94DD60A3DAA2
:1033B000A5019401609155027091560280915702C7
:1033C000909158020E9404AC81111CC0A30192018B
:1033D0006091590270915A0280915B0290915C0257
:1033E0000E9404AC81110EC020915D0230915E02FA
:1033F00040915F0250916002C701B6010E9404AC87
:103400008823B1F00F900F900F90DF91CF911F9113
:103410000F91FF90EF90DF90CF90BF90AF909F9073
:103420008F907F906F905F904F903F902F9036CF0E
:103430000F900F900F90DF91CF911F910F91FF9000
:10344000EF90DF90CF90BF90AF909F908F907F9044
:103450006F905F904F903F902F900895CF93DF93A0
:103460001F92CDB7DEB7898360E0CE010196BBD84D
:1034700061E0CE010196B7D862E0CE010196B3D8E3
:1034800089810F90DF91CF9108950C94B96080915C
:103490007C0365994FC0816080937C039091030108
:1034A00080917C0391FD48C0826080937C03809171
:1034B0007C034B9943C0846080937C0380912A04F1
:1034C00080FF10C08091EB0480FF0CC080917C03D2
:1034D00080FF08C08091FA0481608093FA0480E044
:1034E0000E942A7980912A0481FF10C08091EB0408
:1034F00081FF0CC080917C0381FF08C08091FA0499
:1035000082608093FA0481E00E942A7980912A04E3
:1035100082FF16C08091EB0482FF12C080917C0371
:1035200082FF0EC08091FA0484608093FA0482E0E6
:103530000C942A798E7FB0CF8D7FB7CF8B7FBCCF95
:1035400008958091E904882329F062E070E080E02A
:1035500090E07CCB08958091FA04882319F01092B2
:10356000FA04089560E08AE29EE00E943E80109294
:10357000FC0410928F03109290031092910310920A
:10358000920310929703109298031092990310924D
:103590009A03109293031092940310929503109241
:1035A00096030895CF93C091FC0480E0C13061F18F
:1035B000C23061F559D9609393037093940380935B
:1035C00095039093960381E08093FC040E94D3625C
:1035D00060938F0370939003809391039093920371
:1035E000C23089F08091D8049091D90401969093CB
:1035F000D9048093D80410929B0310929C031092DC
:103600009D0310929E0381E0CF910895B0DFDBCF40
:103610000C94AD5F8F929F92AF92BF92CF92DF9248
:10362000EF92FF920F931F93CF93DF931092780343
:10363000109277032FE320937B0310927A0310926A
:103640007903109273031092740310927503109211
:1036500076039C01F90190812F5F3F4F9032D1F3A7
:103660009E34C9F4818190ED980F9A3020F08D320C
:1036700011F08B3281F432969F012F5F3F4F808192
:1036800080538A3008F46BC09F012F5F3F4F8081C9
:10369000803209F466C0F0933905E09338058F0154
:1036A0000F5F1F4FC0816AE270E0C8010E941DB326
:1036B000009731F0FC01319780818032E1F3118273
:1036C000CD3421F0C43511F0C734E1F5F801808123
:1036D0000F5F1F4F8032D1F380538A3098F5C0932B
:1036E0007B0330E020E06AE0AF014F5F5F4F629FF5
:1036F000C001639F900D11249C01205331098081EA
:10370000280F311D87FD3A95FA01808180538A3058
:1037100058F330937A0320937903DF0131968C912B
:103720008032D9F3CD3449F52E31310539F0D8F452
:103730002731310519F02C313105F9F4B0937803B4
:10374000A0937703DF91CF911F910F91FF90EF909E
:10375000DF90CF90BF90AF909F908F900895F90128
:103760008BCFF90191CF2537310538F02737310557
:1037700028F3203A83E0380709F3D091380540E078
:1037800050E0BA0110E000E0C12CD12C7601C394C6
:10379000FD0131968C91882309F47FC08132E1F4D8
:1037A000CD34D1F420323105B9F4409373035093F2
:1037B00074036093750370937603F0937803E0933A
:1037C000770363E270E0CF010E941DB3009709F414
:1037D000B9CFFC011082B6CF81548A3108F058C0AD
:1037E000DF019D91903291F0A0EDA90FAA30E8F091
:1037F0009E3271F4918190539A30B8F00115110501
:1038000019F48F010150110990E013C0FD01E8CFB8
:103810009D3211F09B3291F79181A0EDA90FAA3052
:1038200020F09E3259F79281E6CF9E2F9D1B309754
:1038300059F3A82FB0E04601570104C0880C991C29
:10384000AA1CBB1C8A95D2F7482959296A297B29C9
:10385000A75ABC4F9C9380818154DF018A3108F4C0
:1038600097CFDF018191882309F492CF90ED980FD3
:103870009A30B8F393ED980F923098F38B3289F326
:10388000CD010196EC91E03209F082CFDC01F8CF56
:103890000115110501F78D01DECF10937803009318
:1038A000770340937303509374036093750370938D
:1038B000760348CFCF93DF93C0916604D09167041D
:1038C000209729F1609162047091630480916404EF
:1038D000909165040E9478B16E5F7F4F24976C17BA
:1038E0007D07ACF470934904609348040E94D3624E
:1038F0006057704A8E4F9F4F60934A0470934B04F9
:1039000080934C0490934D04DF91CF9108951092D1
:103910004A0410924B0410924C0410924D04F4CFC0
:10392000CF93DF939091E10993FD23C0C82F83E5E6
:103930000E940014D82F8823A9F039D98E3691051A
:10394000DCF49093670480936604B4DF61E06C2735
:103950008C2F0E947B78CC2361F08D2FDF91CF914B
:103960000C948B73CC2329F082E50E940014811102
:10397000E4CFDF91CF9108958EE690E0E2CFCF9330
:10398000DF93C0912605D0912705209729F16091FA
:1039900022057091230580912405909125050E94B0
:1039A00078B16E5F7F4F24976C177D07ACF47093EE
:1039B0005104609350040E94D362605E714B8F4F3C
:1039C0009F4F6093520470935304809354049093D8
:1039D0005504DF91CF910895109252041092530430
:1039E0001092540410925504F4CF8A3F910514F0BC
:1039F0008AEF90E09093270580932605C0CF109220
:103A00001E0410921F041092200410922104EAEB6D
:103A1000F3E084E6DF011D928A95E9F7089590911D
:103A2000250D94FB882780F994FF06C081E09091D2
:103A3000AA0C911101C080E0089581E008958F9251
:103A40009F92AF92BF92CF92DF92EF92FF920F932D
:103A5000CF93DF931F92CDB7DEB75C017B014901A5
:103A60006B01C40ED51EF501808191810E94B9AF12
:103A70008983002311F0F7018083BE016F5F7F4FC0
:103A8000C4010E942D5FF50180819181019691838F
:103A90008083FFEFEF1AFF0AEC14FD0421F780E0AA
:103AA0000F90DF91CF910F91FF90EF90DF90CF902B
:103AB000BF90AF909F908F9008950F93AB010091AE
:103AC000260421E0022727E234E0BC018BEA93E0E0
:103AD000B6DF0F9108959091C00095FFFCCF8093C1
:103AE000C6000895CF93DF93EC01FE0184912196E7
:103AF000882311F0F0DFF9CFDF91CF910895CF93B4
:103B0000C82FCB01EFDF87E49EE0ECDF88E39EE087
:103B1000CC2311F08DE39EE0E5DF8AE0CF91DBCF8F
:103B2000CF938CE59EE0DEDF8CB1C1E085FB88277A
:103B300080F966E57EE08C27E2DF809103018695BF
:103B4000817060E57EE08C27DADF89B183FB88270E
:103B500080F96AE47EE08C27CF91D1CF0F931F9339
:103B6000CF938C01C62F8BE79CE0BCDFC801BADF86
:103B70008AE3B1DF80E38C0FAEDF8AE0CF911F9143
:103B80000F91A9CFE091210B81E6E89FF00111246C
:103B9000ED57F44F8081811105C083E49DE1A2DFE0
:103BA0008AE099CF0895CF92DF92EF92FF926A0157
:103BB0007B0198DF42E0C701B601FF90EF90DF90F4
:103BC000CF900C947C72EFDF8AE085CF2F923F92EA
:103BD0004F925F926F927F928F929F92AF92BF921D
:103BE000CF92DF92EF92FF920F931F93CF93DF93C9
:103BF000CDB7DEB7CB54D1090FB6F894DEBF0FBEF8
:103C0000CDBF70E060E085E40E94DA1581112FC01D
:103C100083E40E940014A5E07A2E882319F00E9404
:103C2000D715782E83E50E9400148823E1F10E94C5
:103C3000D71526969FAF8EAF269760E085E50E9448
:103C4000C5158FAB0E94D36269877A878B879C8763
:103C500080914E0290914F020E9726964EAD5FAD29
:103C600026974817590734F18BED9DE002C086E096
:103C70009EE0C55BDF4F0FB6F894DEBF0FBECDBF31
:103C8000DF91CF911F910F91FF90EF90DF90CF9038
:103C9000BF90AF909F908F907F906F905F904F906C
:103CA0003F902F901FCF2DEC30E026963FAF2EAFE8
:103CB0002697C3CF89859A85AB85BC85805E914B5D
:103CC000AF4FBF4F8AAB9BABACABBDAB87EC9DE0BE
:103CD00009DF0E9493788FE78093280581E0809325
:103CE000500289849A84AB84BC8489A69AA6ABA628
:103CF000BCA61A8E1B8E1C8E1D8E1E8E1F8E18A2A9
:103D000019A219821A821B821C822FE730E040E040
:103D100050E02D873E874F87588B1D8230E43B8BC8
:103D20004CE14C8B56E45D8B1E8A1F8A188E198ECF
:103D3000FFE7CF2ED12CE12CF12C1DA61EA61FA62D
:103D400018AA19AA1DA21EA21FA218A68CA31A8A1D
:103D5000198A10E0212C312C00E026962EAD3FADC3
:103D60002697032E000C440B550B28AF39AF4AAFF2
:103D70005BAF26968EAD9FAD26974E969C01990F10
:103D8000440B550B2CAF3DAF4EAF5FAF26968EADBB
:103D90009FAD26974E979C01990F440B550B249687
:103DA0002CAF3DAF4EAF5FAF249726964EAD5FADC3
:103DB000269746505109CA01092E000CAA0BBB0BCD
:103DC00028968CAF9DAFAEAFBFAF2897A72D770CCD
:103DD000BB0B2A96BFAFAEAF2A97809150028823C3
:103DE00009F494C00E94D3622B013C01B0915604A7
:103DF000BEABBB2309F479C00E94A0811092560487
:103E0000109122052090230530902405009125056E
:103E10002E893F89488D598D612F722D832D902FCA
:103E20000E9435B2181624F41E8B2F8A388E098F03
:103E30002D813B894C895D89612F722D832D902FB7
:103E40000E9404AC87FF04C01D832B8A3C8A0D8B23
:103E500068AD79AD8AAD9BAD0E940AAC2C966FAF70
:103E60002C972B967FAF2B978AA39BA32CA1222361
:103E700009F497C19B01AC01612F722D832D902F06
:103E80000E9435B218168CF5B301A20148195909E0
:103E90006A097B09DB01CA0188589341A109B1096C
:103EA000B7FD23C08D859E85AF85B8898C199D0986
:103EB000AE09BF09B595A795979587958093280575
:103EC0004DA35EA36FA378A72C963FAD2C973E8B96
:103ED0002B964FAD2B974F8B5AA1588F8BA1898F63
:103EE00049865A866B867C861CA26CAD7DAD8EADF4
:103EF0009FAD0E940AAC212F322D432D502F0E94DE
:103F000004AC87FF39C084E59DE0ECDD10925002DF
:103F1000C55BDF4F0FB6F894DEBF0FBECDBFDF919C
:103F2000CF911F910F91FF90EF90DF90CF90BF90B6
:103F3000AF909F908F907F906F905F904F903F9049
:103F40002F900C9493784BEEC42ED12CE12CF12CB5
:103F500084C184E190E0A0E0B0E08D879E87AF87C8
:103F6000B88B34E1C32ED12CE12CF12C84C1CD8649
:103F7000DE86EF86F88A7FC1D301C20129A53AA562
:103F80004BA55CA5821B930BA40BB50BB7FD49C0D9
:103F900080E00E941C738AE09EDDD301C201805341
:103FA000984FAF4FBF4F89A79AA7ABA7BCA79DA5B6
:103FB000911165C02EA53FA548A959A9612F722D61
:103FC000832D902F0E9435B218160CF044C020E0CB
:103FD00030E040E050E4612F722D832D902F0E943D
:103FE00096B06EA77FA788AB99ABA3019201205E24
:103FF000314B4F4F5F4F2AAB3BAB4CAB5DAB289681
:104000006CAD7DAD8EAD9FAD28970E940AAC212F7F
:10401000322D432D502F0E9404AC881F8827881F03
:104020008DA789859A85AB85BC8588169906AA06D1
:10403000BB0610F4D501C401481A590A6A0A7B0A62
:1040400031E843163FE4530632E16306710470F130
:1040500086E39DE05ACFD301C2012AA93BA94CA90E
:104060005DA9821B930BA40BB50B4DE858E16CE9DD
:1040700078E1B7FDD6CF80E00E947080D2CF249641
:104080006CAD7DAD8EAD9FAD24970E940AAC9B01B7
:10409000AC01612F722D832D902F0E9404AC87FFFD
:1040A000C0CF47EF59E167E07AE1E5CF2A964EAD00
:1040B0005FAD2A9789899A89481759070CF08DCEE8
:1040C00003970CF48ACE89ED9CE00CDD8CEB9CE030
:1040D00009DD49815A816B817C8185ED9CE073DD2E
:1040E0008CEB9CE0FFDC4E8D5F8D68A179A181EDAA
:1040F0009CE069DD8CEB9CE0F5DC4A8D5B8D6C8D82
:104100007D8D8DEC9CE05FDD9FA9992381F1298154
:104110003A814B815C812093290530932A05409395
:104120002B0550932C052CEA35EC47E25EE36E8DAF
:104130007F8D88A199A10E9469AC60932D05709331
:104140002E0580932F05909330052CEA35EC47E23D
:104150005EE36A8D7B8D8C8D9D8D0E9410B1609386
:104160003105709332058093330590933405C55B18
:10417000DF4F0FB6F894DEBF0FBECDBFDF91CF91FA
:104180001F910F91FF90EF90DF90CF90BF90AF9075
:104190009F908F907F906F905F904F903F902F9067
:1041A00008952C962FAD2C972B963FAD2B974AA1B7
:1041B0005BA1612F722D832D902F0E9404AC87FF8D
:1041C00094CED301C20129853A854B855C85821B3B
:1041D000930BA40BB50BAC01BD01485853416109C9
:1041E000710977FD82CE49895A89452B09F4F0C0BF
:1041F0008DA09EA0AFA0B8A4880E991EAA1EBB1EBB
:104200002DA13EA14FA158A5281B390B4A0B5B0BD2
:10421000C701B6010E94CFAFA50194010E9400B072
:10422000CD84DE84EF84F888C20ED31EE41EF51E12
:1042300054E1C516D104E104F1040CF48ACE8CEEED
:10424000C816D104E104F1040CF07DCE90E8C91643
:10425000D104E104F1040CF48ACECD86DE86EF862B
:10426000F88A2EEF30E040E050E02C193D094E096D
:104270005F0969017A018FEB9DE034DC6D857E85F5
:104280008F859889C5D98AEB9DE02CDCC701B601E2
:10429000BFD94D815B896C897D8983EB9DE083DC8F
:1042A0004E895F89688D798D8CEA9DE07CDCA989D7
:1042B000BA8913970CF48CC0C701B6010E940AACEE
:1042C00020E030E040E850E40E9469AC69837A83E2
:1042D0008B839C832D813B894C895D896E897F8985
:1042E000888D998D0E9495B02BED3FE049E450E414
:1042F0000E9469AC20E030E040E05FE30E9469ACDE
:104300009B01AC0169817A818B819C810E9410B1F3
:104310006D837E838F839887C501B4010E940AACA8
:104320002FE632E143E85AE30E9469AC4B015C019D
:104330002AE939E949E15FE36D817E818F819885C2
:104340000E9469AC69837A838B839C839B01AC0157
:104350000E9496B0A50194010E9410B16E8F7F8FCC
:1043600088A399A329813A814B815C81C501B4015D
:104370000E9469AC20E030E040E05EE30E9469AC5E
:104380006A8F7B8F8C8F9D8F4D815E816F81788549
:1043900086EA9DE008DCB501A40180EA9DE013DC1B
:1043A00081E99DE09FDB49815A816B817C818BE8AB
:1043B0009DE0F9DB4E8D5F8D68A179A185E89DE0D8
:1043C000F2DB4A8D5B8D6C8D7D8D8FE79DE0FBDB95
:1043D0008D859E85AF85B8898C0D9D1DAE1DBF1D39
:1043E000B595A795979587958093280529893A894A
:1043F0002F5F3F4F3A8B298B2C963FAD2C973D83F7
:104400002B964FAD2B974B8B5AA15C8B8BA18D8B31
:10441000530142019EA99CA368CDAF92BF92CF9257
:10442000DF92EF92FF920F931F93CF93DF938BE670
:1044300093E058DB60911E0470911F04809120046A
:104440009091210445E00E947C7288E593E04ADB6C
:10445000C0E0D9E0D15019F080E23DDBFBCF8C2FDA
:104460000E946572CF5FC530A1F78AE034DB0AEBAA
:1044700013E0C0E080E22FDB8C2F0E9465725801B0
:10448000D5E080E228DBF501C080D180E280F380B6
:10449000A7019601C701B6010E94ABB2811129C0E4
:1044A00020E030E0A901C701B6010E9435B287FDC6
:1044B00002C08BE210DB45E0C701B6010E947C72AE
:1044C000D15084E1A80EB11CD111DBCF8AE003DB0F
:1044D000CF5F0C5F1F4FC53069F68AE0DF91CF9147
:1044E0001F910F91FF90EF90DF90CF90BF90AF9012
:1044F000F2CAF12C80E2EFDAF3948DE3F8E0FF12D8
:10450000FACFDECF811105C081E593E0EBDA8AE0D6
:10451000E2CA85E593E0FACF8AE493E0E3CA84E453
:1045200093E0E0CA84E690E09093AC038093AB0301
:1045300010922804109227040C945F9C81E08093D1
:104540002604F0DF109226048111ECCF0E943A97E6
:1045500080E008954F925F926F927F928F929F9228
:10456000AF92BF92DF92EF92FF920F931F93CF9380
:10457000DF93D82EC82FD0E0FE01EB52F24E6491AB
:10458000062E000C770B880B990B0E940AAC2B01AE
:104590003C017E01EE0CFF1CEE0CFF1CF701E35109
:1045A000F14F2591359145915491C301B2010E947B
:1045B00069AC4B015C01F701EF51F14F65917591C9
:1045C0008591949120E030E040EC5FE30E9469AC7B
:1045D000A30192010E9469ACAB01BC0100E010E0B4
:1045E00098018D2D0E94019520E030E0A901C501C0
:1045F000B4010E9404AC882309F444C0B501A401AD
:10460000705800E010E098018D2D0E940195A501E1
:104610009401C501B4010E9496B04B015C01C252E5
:10462000D14FFE01C491C11105C079DF8CEB9EE032
:1046300059DACAE0DD2039F0F1E060E070E084E3AF
:1046400094E4DF1204C060E070E086E995E420E0C5
:1046500030E040E752E40E9410B12B013C016C2F86
:1046600070E090E080E00E9408AC9B01AC01C301C7
:10467000B2010E9410B18B019C01B501A4018D2DE6
:104680000E94019581E090E00D2C01C0880F0A94F2
:10469000EAF79091EA04982B9093EA0490917D03B5
:1046A000892B80937D03F701E055F14F859195911A
:1046B000A591B491E701CB5ADD4F88839983AA83F2
:1046C000BB83F701E258FC4F1082118212821382E1
:1046D0008D2D0E9414130E94451AF701E250FB4FE2
:1046E00088819981AA81BB8180839183A283B383CE
:1046F000DF91CF911F910F91FF90EF90DF90BF90CE
:10470000AF909F908F907F906F905F904F900895A3
:10471000CF9384E50E940014C0E08823E9F00E9452
:10472000A515C82F1816C4F4FADE8DE4D4D960910B
:10473000790370917A0390E080E00E94435F81E505
:1047400096E0D0D96C2FCC0F770B880B990B0E9479
:10475000AD5F8AE0C0D9CFEF8C2FCF910895FF9243
:104760000F931F93CF93DF939091E10993FD60C066
:10477000C82FCEDFD82F87FD5BC083E50E940014D1
:10478000182F882309F446C00E94D7152ED961E05E
:104790008C2F0E947B7801E083E50E94001488231F
:1047A00031F00E94D715909316028093150282E48F
:1047B0000E940014882331F00E94D71590931402B0
:1047C0008093130286E40E94B213882369F10E9449
:1047D000E71560930F02709310028093110290937B
:1047E0001202FF24F39420E030E0A9010E9404ACFF
:1047F000811101C0F12CF0925904CC23C9F000239F
:10480000B9F0612F8D2FDF91CF911F910F91FF9004
:104810000C940475C11102C000E0BECF82E50E9475
:1048200000148111B1CFF8CF60E070E0CB01D1CF9F
:10483000DF91CF911F910F91FF900895CF93DF9358
:10484000EB0150D9BE0190E080E0DF91CF910C9454
:10485000435FCF93DF93EB0145D9BE01DD0F880B9A
:10486000990BDF91CF910C94AD5F5F926F927F9225
:104870008F929F92AF92BF92CF92DF92EF92FF9270
:104880000F931F93CF93DF931F92CDB7DEB77C01B9
:1048900039018B015B01A40EB51ED12CC12CA016D1
:1048A000B10609F44EC0F70180809180F801519063
:1048B0008F015982C4010E94B9AF5816A9F1652D24
:1048C000C4010E94C1AFFFEFCF1ADF0AC6018F7784
:1048D0009927892B11F162E070E080E090E00E945E
:1048E000A262C4010E94B9AF99818917E9F017DE6D
:1048F00083E691E0F7D881E00F90DF91CF911F918F
:104900000F91FF90EF90DF90CF90BF90AF909F906E
:104910008F907F906F905F90089562E070E080E0EC
:1049200090E00E942616DDCFBE016F5F7F4FC3016E
:104930000E942D5FF7018081918101969183808390
:10494000AECF80E0D9CF8F929F92AF92BF92DF928D
:10495000EF92FF920F931F93CF93DF93CDB7DEB704
:10496000C658D1090FB6F894DEBF0FBECDBFC358ED
:10497000DF4F188219821A821B82CD57D040809156
:10498000180390911903A0911A03B0911B03CF57FC
:10499000DF4F88839983AA83BB83C158D04084E6C4
:1049A00090E09093AC038093AB0310922804109294
:1049B00027041092290427E234E044E050E0BE01CD
:1049C0006F577F4F8BEA93E050DF8091AB0390915C
:1049D000AC0302969093AC038093AB03109228042F
:1049E0001092270481E0CA57DF4F8883C658D04011
:1049F000CE018A579F4F0E94289727E234E048E46F
:104A000050E062EE79E08BEA93E02FDF80E1E9E6A7
:104A1000F2E08E010F5F1F4FD80101900D928A9531
:104A2000E1F727E234E040E150E0B8018BEA93E09F
:104A30001CDF86E495E00E9416978CEE94E00E94BD
:104A400031977E018DE6E80EF11C8FEFF701808330
:104A5000C7010E94289719821A821B821C82C801F2
:104A60000E9416978091420590914305A0914405BC
:104A7000B091450589839A83AB83BC83C8010E94AA
:104A8000169785E08983F70180838EE194E00E9488
:104A90001697C8010E942897C7010E94289727E20D
:104AA00034E044E650E06AEB73E08BEA93E0DDDE4D
:104AB0008CE0F80111928A95E9F7C8010E943197BC
:104AC000C358DF4F188219821A821B82CD57D040FB
:104AD0003AE0D32EDA94DD2031F0CE0183589F4F97
:104AE0000E941697F7CF88E0F701982F11929A95B8
:104AF000E9F7F80111928A95E9F783E0CB57DF4F88
:104B00008883C558D040EA968FAFEA97CE018B577D
:104B10009F4F0E942897CE0187589F4F0E94289749
:104B200027E234E048E050E0B8018BEA93E09DDEF4
:104B300027E234E048E050E0B7018BEA93E095DEED
:104B4000C358DF4F188219821A821B82CD57D0407A
:104B50002AE0A22EB12CF1E0AF1AB10831F0CE015B
:104B600083589F4F0E941697F6CF1982BB24BA94A0
:104B7000F701B082C8010E941F97C7010E942897C1
:104B800080E1D82EF8018D2D11928A95E9F727E260
:104B900034E040E150E0B8018BEA93E066DE198230
:104BA000C8010E941F97198A1A8A1B8A1C8A80E0F2
:104BB00090E0A0E8BFE38D879E87AF87B88B809198
:104BC000290590912A05A0912B05B0912C05898388
:104BD0009A83AB83BC832CEA35EC47E25EE36091B9
:104BE0002D0570912E0580912F05909130050E9422
:104BF00010B16D837E838F8398872CEA35EC47E272
:104C00005EE360913105709132058091330590919A
:104C100034050E9469AC69877A878B879C8727E275
:104C200034E044E150E0B8018BEA93E01EDE84E119
:104C300090E09A83898327E234E042E050E0B801B3
:104C40008BEA93E012DE8CE0E9E7F2E0D801019014
:104C50000D928A95E1F7C8010E940D978CE0E9E773
:104C6000F2E0D80101900D928A95E1F7C8010E9407
:104C70000D971982C8010E9428978FE78983C80180
:104C80000E942897B982C8010E94289785E0E5E82C
:104C9000F2E0D80101900D928A95E1F727E234E025
:104CA00045E050E0B8018BEA93E0DFDD1982C801EE
:104CB0000E941F9780E2EAE8F2E0D80101900D928D
:104CC0008A95E1F727E234E040E250E0B8018BEA50
:104CD00093E0CBDDF7011082C7010E941F9789EB9B
:104CE00093E00E941F9785EB93E00E941697C358AC
:104CF000DF4F188219821A821B82CD57D040CE0115
:104D000083589F4F0E94169782E1F80111928A956D
:104D1000E9F727E234E042E150E0B8018BEA93E0A2
:104D2000A4DD84E2EAEAF2E0D80101900D928A95CE
:104D3000E1F727E234E044E250E0B8018BEA93E087
:104D400094DDF8011192DA94E9F727E234E040E1CA
:104D500050E0B8018BEA93E088DD89E0F801119218
:104D60008A95E9F727E234E049E050E0B8018BEAA0
:104D700093E07BDDC358DF4F188219821A821B82B1
:104D8000CD57D040CE0183589F4F0E9416979CE08C
:104D9000D92EF8018D2D11928A95E9F727E234E09A
:104DA0004CE050E0B8018BEA93E05FDD8CE6F8015F
:104DB00011928A95E9F727E234E04CE650E0B80119
:104DC0008BEA93E052DD8FE993E00E940D9727E292
:104DD00034E048E050E06DEA73E08BEA93E045DDB3
:104DE000F7011192DA94E9F7CB57DF4F1882C558D3
:104DF000D04080E090E0A0E4B0E4ED968CAF9DAFB1
:104E0000AEAFBFAFED97C7010E943197CE018B5770
:104E10009F4F0E942897CE0187589F4F0E94169758
:104E2000D0902904D11049C00091AB031091AC037C
:104E3000045611098091270490912804F701918369
:104E4000808384E690E09093AC038093AB0327E2E9
:104E500034E044E050E066EF72E08BEA93E005DD79
:104E600027E234E042E050E0B7018BEA93E0FDDC5A
:104E700056DBB80181E29FE0E1DCF70180809180A0
:104E8000B12CA12C84E19FE00E94721DC501B401E8
:104E90000E94435F81E19FE00E94721D0C3A124024
:104EA00039F03ADB86E59FE00E94721DDD24D39441
:104EB000809129048D29809329049091290481E00F
:104EC0008927CA57DF4F0FB6F894DEBF0FBECDBF9C
:104ED000DF91CF911F910F91FF90EF90DF90BF90E6
:104EE000AF909F908F900895CF93DF9300D01F9243
:104EF000CDB7DEB78091D704882381F083E390E0BB
:104F00009C838B831A8219829E012F5F3F4F40E161
:104F100050E068ED74E0CE010396A7DC0F900F908F
:104F20000F900F90DF91CF910895CF92DF92EF9283
:104F3000FF92CF93C82F8091FC048150823008F0FB
:104F400066C01092FC040E94D36260939703709332
:104F500098038093990390939A03C0909B03D090F9
:104F60009C03E0909D03F0909E030E943414AB01DB
:104F7000BC0140939B0350939C0360939D037093EB
:104F80009E038091DC049091DD04A091DE04B09139
:104F9000DF048C199D09AE09BF09840F951FA61F58
:104FA000B71F8093DC049093DD04A093DE04B093DC
:104FB000DF04C11109C0C1E097DF8C2FCF91FF90B2
:104FC000EF90DF90CF9008958091DA049091DB0408
:104FD00001969093DB048093DA040E943414C0900D
:104FE000E004D090E104E090E204F090E304C616FF
:104FF000D706E806F906F8F60E9434146093E00438
:105000007093E1048093E2049093E304D4CFC0E072
:10501000D3CFCF93DF9300D01F921F92CDB7DEB7CF
:1050200081E08093D70480E1E8EDF4E0DF011D9298
:105030008A95E9F759DF86E18D8382E390E09C83CE
:105040008B831A8219829E012F5F3F4F41E050E00F
:10505000BE016B5F7F4FCE01039607DC0F900F9070
:105060000F900F900F90DF91CF910895CF93DF9322
:10507000EB010E94721DBE0190E080E00E94435F40
:105080008AE0DF91CF910C946B1D8091370A90914B
:10509000380A2FEF3FEF981751F0E92FF0E0E95C65
:1050A000F54F228130E09F5F9F779093380AC901C6
:1050B00008951F920F920FB60F9211240F900FBEFA
:1050C0000F901F9018951F920F920FB60F921124F8
:1050D0000BB60F922F933F934F935F938F939F93B2
:1050E000EF93FF939091C6005091380A2091370AB0
:1050F00041E0420F4F77309125033C3008F074C0F7
:10510000E32FF0E08827E857F74D8F4F0C946FB0EE
:105110009428BB28CA28D528DC28F428E028F428BD
:10512000E428E828F428EC28903229F0E8F49A30B2
:1051300011F09D30F1F4541731F0E22FF0E0E95C0A
:10514000F54F9283242F2093370AFF91EF919F917F
:105150008F915F914F913F912F910F900BBE0F90C8
:105160000FBE0F901F9018959D3481F081E09E3402
:1051700071F08BE00CC09A3338F49033E0F6903243
:10518000D1F29D32B1F7D7CF9D3499F782E0809369
:105190002503D1CF913329F0943329F0903249F788
:1051A000CACF83E0F4CF88E0F2CF84E0903379F384
:1051B00086E0913361F3DDCF85E09833D1F6E7CF18
:1051C00087E09233B1F6E3CF89E0913391F6DFCFF8
:1051D0008AE0903371F6DBCF9A3019F09D3009F0F8
:1051E000AACF10922503A7CF9A3019F09D3009F06D
:1051F000A2CF8091F20C8823A1F3373049F03A30E6
:1052000059F0353071F71092500210923505E9CF00
:1052100081E080934F04E5CF81E080934E04E1CF9D
:105220008EBD0DB407FEFDCF08958FEF8EBD0DB47A
:1052300007FEFDCF8EB50895909164009B7F9093FB
:105240006400982F906A96959CBD80FD03C091E004
:10525000863009F490E09DBD0895CF93DF93EB0174
:105260000E94721DCE01DF91CF910C9458662F924F
:105270003F924F925F926F927F928F929F92AF92E6
:10528000BF92CF92DF92EF92FF920F931F93CF9333
:10529000DF9300D000D000D01F92CDB7DEB7B82E7C
:1052A0008091200B843008F0B3C171E6D72E809135
:1052B000200B843008F0F1C08091370A9091380AB1
:1052C000891B8F7709F4E9C0E0DE97FF0AC024D973
:1052D0008FE992E00E94721D8091370A8093380A0C
:1052E000E6CF8A3019F08D3009F0CEC010921F0B36
:1052F0008091BD0A9091BE0AFC01E754F54F1682D9
:10530000892B19F40E941282D2CF1092BE0A1092F9
:10531000BD0A0FEB1AE0F8018191803209F446C012
:105320008E3409F09CC06AE972E0C8010E94BBABF0
:105330007C01892B41F06EE470E0C80104960E9464
:105340001DB3009709F4C8014AE050E070E060E046
:1053500001960E9439A92B013C018091B90A9091D4
:10536000BA0AA091BB0AB091BC0A0196A11DB11D59
:10537000481659066A067B0629F060E087E692E047
:10538000EF2851F16AE270E0C8010E944CB39C0121
:10539000009729F1982F901BF12C992349F09150F7
:1053A000F801E90FF11D8081F826F7CF8F01B3CF07
:1053B0004AE050E070E060E0C90101960E9439A91E
:1053C0002F2D30E050E040E0621773078407950707
:1053D00051F060E088E492E00E94256068CF60E0D0
:1053E0008EE192E0F9CF4092B90A5092BA0A6092E7
:1053F000BB0A7092BC0A8091FB048130B9F467E467
:1054000070E0C8010E941DB3009781F04AE050E0AF
:1054100070E060E001960E9439A962307105810553
:10542000910520F48DE791E00E94721D8091BF0AE2
:105430008B3309F43CCF8091200B843008F037CFB8
:105440008091220B8D9DC00111246FEB7AE08D5D60
:10545000944F0E9428B380E00E94E65F28CF80919D
:10546000250D80FFC8CF60E77DE1C8010E94BBAB7E
:10547000009731F0FC01838180538A3008F0BBCF64
:1054800060E084EF91E0A8CF2DEB3AE04FEB5AE0DB
:105490006FE17BE00E9434130ACF8091250D83FDDC
:1054A000B7C082FFB5C087FDB3C01A82198241E63A
:1054B000F42E54E0E52E69E6D62E8091200B843040
:1054C00008F0A6C00E946C138111A2C041E050E018
:1054D000BE016B5F7F4F87EA9CE00E94EB6B0D8102
:1054E00010E0019711F00FEF1FEF8091AF0C90913A
:1054F000B00CA091B10CB091B20C8093210D90939F
:10550000220DA093230DB093240D0E946C130F3F26
:10551000100749F4811107C00E948C2287EB92E0AA
:105520000E94721DCACF4091220B242F30E00A3016
:1055300061F00D3051F0882309F45CC089819A81B3
:10554000009719F001969A83898310922603898126
:105550009A81F29EF001F39EF00D1124E05EF44F6B
:10556000E80FF91F1382892BA9F50E9412820E946D
:105570006C13882309F4A1CF87EA9CE00E946C6E2B
:1055800080911C0D882361F1815080931C0D8D9DAD
:10559000C001112462E083599B4F0E94419BE0911E
:1055A0001C0D24E0E29FF0011124E759FB4F4081DC
:1055B0005181628173814093210D5093220D60933C
:1055C000230D7093240D87EA9CE00E94586B0E9483
:1055D000B56673CF1A82198281E00E94E65FC7CF59
:1055E0000E948C6E8091250D88608093250DE0923D
:1055F000FB0463CF4F9DA00111244D5D544F9E01CC
:105600002F5F3F4F66E273E0802F0E94341355CF27
:105610000E94D3626B017C01B11004C08091FD0433
:10562000882351F0C0925A04D0925B04E0925C044B
:10563000F0925D04BB24B394809152039091530384
:10564000A0915403B09155030097A105B105B1F0A5
:1056500040915A0450915B0460915C0470915D0428
:10566000840F951FA61FB71FA7019601281B390B92
:105670004A0B5B0BDA01C901B7FFCAC0809109026E
:1056800090910A02A0910B02B0910C02892B8A2BF7
:105690008B2B09F0CCC080912B0390912C03A0910F
:1056A0002D03B0912E0346015701881A990AAA0AC0
:1056B000BB0AD501C401B7FD39C29091E00C8091BD
:1056C000E10C20910002981709F4F4C0E091E10C7C
:1056D00037E4E39FF0011124E954FA4F8081281741
:1056E00099F0809300020E94D362B09000020B2DCB
:1056F00010E089E00E94C75F0115110509F0DDC0C7
:1057000060E089E00E94D66180915904882309F401
:1057100000C20091150210911602C8010297209153
:10572000260530912705281739070CF4F2C180901F
:10573000E10C8E821F82188619861A868091E00CF1
:105740009E80891509F47AC1892D90E037E4A32E53
:10575000A89EF001A99EF00D1124EF58FA4F45893B
:1057600056896789708D452B462B472B81F4418DD7
:10577000528D638D748D452B462B472B41F4458DFF
:10578000568D678D70A1452B462B472BE1F127E401
:10579000B22EB89E9001B99E300D1124A9014F5828
:1057A0005A4F1A01FA0161817281838194810E94AA
:1057B0006DB24B015C01F10161A172A183A194A1C1
:1057C0000E9408AC2B013C01F10165A176A187A1E3
:1057D00090A50E9408AC9B01AC01C301B2010E94DC
:1057E00010B1A50194010E9469AC4B015C012F81AD
:1057F000388549855A850E9435B2181624F48F825F
:105800009886A986BA868E818F5F8F708E8396CF99
:105810000E948C22609138057091390586EC92E0E7
:105820000E94109A60E090E080E00E943E8090919B
:10583000E00C8091E10C981749F0C0925A04D09284
:105840005B04E0925C04F0925D0425CFBB2019F06C
:1058500010922F0320CF0E94D36200915A0410911E
:105860005B0420915C0430915D048090090290906B
:105870000A02A0900B02B0900C02080D191D2A1DFF
:105880003B1D601B710B820B930B97FDE1CF809149
:105890002F03811100CF81E080932F0380E00E94CD
:1058A0000D8081E00E940D8082E00E940D800E94A8
:1058B000FE7FF1CE80915E0512CF0F3F110511F4EE
:1058C00061E01FCFE8E9FDE1E491E150E23108F049
:1058D000B0C0F0E08827E059F34D8F4F0C946FB0C3
:1058E000822C872C8C2C962CA02C192DAA2CB22C17
:1058F000BA2CC42CCE2CD82CE72CF12C192DFB2C37
:10590000052D0F2D84B5806884BDB7BCFDCE84B550
:10591000806284BDB8BCF8CE80918000806880939E
:1059200080001093890000938800EECE8091800063
:1059300080628093800010938B0000938A00E4CEF5
:105940008091800088608093800010938D00009388
:105950008C00DACE8091B00080688093B000B09265
:10596000B300D2CE8091B00080628093B000B0923C
:10597000B400CACE8091900080688093900010930C
:10598000990000939800C0CE80919000806280932F
:10599000900010939B0000939A00B6CE80919000E7
:1059A00088608093900010939D0000939C00ACCE83
:1059B0008091A00080688093A0008091A0008F7BE0
:1059C0008093A0001093A9000093A8009DCE809121
:1059D000A00080628093A0001093AB000093AA0007
:1059E00093CE8091A00088608093A0001093AD00BA
:1059F0000093AC0089CE80912001806880932001C3
:105A000010932901009328017FCE809120018062AC
:105A10008093200110932B0100932A0175CE809171
:105A2000200188608093200110932D0100932C01A8
:105A30006BCE003811050CF043CF62CE20910F02DF
:105A40003091100240911102509112026F817885BD
:105A500089859A850E9469AC4B015C01B801012ED1
:105A6000000C880B990B0E940AAC9B01AC01C5018C
:105A7000B4010E9496B069837A838B839C834091A2
:105A8000130250911402B801CE0101960E94B4781D
:105A900049805A806B807C808090270390902803F7
:105AA000A0902903B0902A03A5019401C301B2017B
:105AB0000E9404AC87FF1CC020E037ED43EA5CE3A2
:105AC000C301B2010E9469AC2B013C0128E431EE14
:105AD0004AE75FE3C501B4010E9469AC9B01AC01D8
